:200000000C94A5030C94CD030C94CD030C94CD030C94AD260C94CD030C94CD030C94CD0385
:200020000C94CD030C94CD030C94CD030C9408170C94CD030C94CD030C94CD030C94CD03F1
:200040000C94BE160C94CD030C9499150C9473150C94CD030C94CD030C94CD030C94CD0386
:200060000C94F01A0C94CD03084AD73B3BCE016E84BCBFFDC12F3D6C74319ABD56833DDA09
:200080003D00C77F11BED9E4BB4C3E916BAAAABE000000803F05A84CCDB2D44EB93836A9D5
:2000A000020C50B9918688083CA6AAAA2ABE000000803F004E414E494E495459494E46CD91
:2000C000CCCC3D0AD7233C17B7D13877CC2B329595E6241FB14F0A000020410000C84200CC
:2000E000401C4620BCBE4CCA1B0E5AAEC59D7400407A10F35A00A0724E18090010A5D4E89E
:200100000000E87648170000E40B54020000CA9A3B000000E1F50500008096980000004075
:20012000420F000000A08601000000102700000000E803000000006400000000000A0000B7
:200140000000000100000000002C76D888DC674F0823DFC1DFAE59E1B1B796E5E3E453C6B5
:200160003AE651997696E8E6C28426EB898C9B62ED407C6FFCEFBC9C9F40F2BAA56FA5F49F
:2001800090055A2AF75C936B6CF9676DC11BFCE0E40D47FEF520E6B500D0ED902E0300940C
:2001A0003577050080841E080000204E0A000000C80C333333330F986E12831141EF8D21B3
:2001C00014893BE65516CFFEE6DB18D1844B381BF77C1D901DA4BBE424203284725E228170
:2001E00000C9F124ECA1E53D2700000000240027002A0001020408102040800102040810B8
:200200002001020408102000000000250028002B00040404040404040402020202020203D8
:20022000030303030354696D000000000023002600290000000008000201000003040700FA
:200240000000000000000000000000003E5B4F5B3E3E6B4F6B3E1C3E7C3E1C183C7E3C1826
:200260001C577D571C1C5E7F5E1C00183C1800FFE7C3E7FF0018241800FFE7DBE7FF30483A
:200280003A060E2629792926407F050507407F05253F5A3CE73C5A7F3E1C1C08081C1C3E73
:2002A0007F14227F22145F5F005F5F06097F017F006689956A606060606094A2FFA2940809
:2002C000047E040810207E201008082A1C08081C2A08081E101010100C1E0C1E0C30383E92
:2002E0003830060E3E0E06000000000000005F00000007000700147F147F14242A7F2A1280
:20030000231308646236495620500008070300001C2241000041221C002A1C7F1C2A080869
:200320003E080800807030000808080808000060600020100804023E5149453E00427F40CD
:200340000072494949462141494D331814127F1027454545393C4A494931412111090736E1
:2003600049494936464949291E00001400000040340000000814224114141414140041227F
:20038000140802015909063E415D594E7C1211127C7F494949363E414141227F4141413EF3
:2003A0007F494949417F090909013E414151737F0808087F00417F41002040413F017F0804
:2003C0001422417F404040407F021C027F7F0408107F3E4141413E7F090909063E4151211F
:2003E0005E7F09192946264949493203017F01033F4040403F1F2040201F3F4038403F6340
:200400001408146303047804036159494D43007F4141410204081020004141417F04020167
:2004200002044040404040000307080020545478407F284444383844444428384444287FEA
:20044000385454541800087E090218A4A49C787F0804047800447D40002040403D007F10D7
:2004600028440000417F40007C047804787C080404783844444438FC182424181824241870
:20048000FC7C08040408485454542404043F44243C4040207C1C2040201C3C4030403C4439
:2004A000281028444C9090907C4464544C440008364100000077000000413608000201021A
:2004C00004023C2623263C1EA1A161123A4040207A38545455592155557941225454784271
:2004E000215554784020545579400C1E52721239555555593954545459395554545800004B
:20050000457C410002457D420001457C407D1211127DF0282528F07C545545002054547C9F
:20052000547C0A097F4932494949323A4444443A324A4848303A4141217A3A4240207800AA
:200540009DA0A07D3D4242423D3D4040403D3C24FF2424487E4943662B2FFC2F2BFF092987
:20056000F620C0887E090320545479410000447D413048484A32384040227A007A0A0A727F
:200580007D0D19317D2629292F28262929292630484D4020380808080808080808382F1060
:2005A000C8ACBA2F102834FA00007B000008142A142222142A14085500550055AA55AA5508
:2005C000AAFF55FF55FF000000FF00101010FF00141414FF001010FF00FF1010F010F0141F
:2005E0001414FC001414F700FF0000FF00FF1414F404FC141417101F10101F101F14141487
:200600001F00101010F0000000001F101010101F10101010F010000000FF1010101010107E
:20062000101010FF10000000FF140000FF00FF00001F10170000FC04F414141710171414A2
:20064000F404F40000FF00F714141414141414F700F7141414171410101F101F141414F439
:20066000141010F010F000001F101F0000001F14000000FC140000F010F01010FF10FF1493
:200680001414FF141010101F00000000F010FFFFFFFFFFF0F0F0F0F0FFFFFF000000000028
:2006A000FFFF0F0F0F0F0F3844443844FC4A4A4A347E02020606027E027E02635549416372
:2006C0003844443C04407E201E2006027E020299A5E7A5991C2A492A1C4C7201724C304A45
:2006E0004D4D303048784830BC625A463D3E494949007E0101017E2A2A2A2A2A44445F44B8
:200700004440514A444040444A51400000FF0103E080FF000008086B6B08361236243606A9
:200720000F090F06000018180000001010003040FF0101001F01011E00191D1712003C3CB5
:200740003C3C000000000000413011241FBECFEFD8E0DEBFCDBF15E0A0E0B1E0E6E1F3E758
:2007600002C005900D92AA39B107D9F728E0AAE9B5E001C01D92A530B207E1F713E0C5EA70
:20078000D3E004C02197FE010E947339C43AD107C9F70E944F270C9489390C9400008F920C
:2007A0009F92AF92BF92CF92DF92EF92FF920F931F93CF93DF938091FD05882339F01092E1
:2007C000FD05809120018150809320018091FC05882339F01092FC05809120018F5F809324
:2007E000200180912001811103C081E08093200180912001209106013091070190E028175A
:20080000390730F480910601909107018093200183E08093E40781E090E09093E1078093AF
:20082000E0071092E3071092E20720910501222351F080E094E0E1E2F1E0DF01AC011D92D9
:2008400041505040E1F78091010190910201A0910301B09104010097A142B24129F41092C1
:200860009D0510929C0530C08091010190910201A0910301B09104010097A242B24119F476
:200880008CE990E01DC08091010190910201A0910301B09104010097A342B24119F488E3FD
:2008A00091E00EC08091010190910201A0910301B09104010097A442B24131F484E791E0D6
:2008C00090939D0580939C058091010190910201A0910301B0910401009730E1A30732E188
:2008E000B30709F464C470F5009750E2A50751E1B50709F4C5C298F40097A10541E1B40727
:2009000009F483C1009750E1A50751E1B50709F45DC20097A105B04109F02FC795C000970F
:2009200030E4A30731E1B30709F45FC30097A10542E1B40709F4B4C30097A043B14109F01A
:200940001CC7F8C2009723E2A20722E1B20709F44DC5A0F4009741E2A40742E1B40709F416
:2009600045C5009752E2A50752E1B50709F43EC50097A042B24109F458C4FFC60097A10580
:2009800033E1B30709F48DC530F40097A442B24109F42CC5F2C6009720E1A20723E1B20702
:2009A00009F460C60097A105B44109F0E6C682E08093E407CAE0D0E0D093DD07C093DC0706
:2009C00089E190E09093DF078093DE0745E050E067E570E081E00E941E1C80ED97E00E9488
:2009E000082681E08093E407D093DD07C093DC0788E290E09093DF078093DE0744E050E0BE
:200A00006DE570E081E00E941E1C80ED97E00E94082641E050E067E271E081E00E941E1C1B
:200A200080ED97E00E94082647E050E062E670E081E00E941E1C80ED97E00E94082644E0FE
:200A400050E062E270E096C681E08093E40780912001813051F41092E1071092E00781E07B
:200A600090E09093E3078093E20783E090E09093DD078093DC078FE090E09093DF07809332
:200A8000DE074BE050E064E070E081E00E941E1C80ED97E00E94082681E090E09093E107B5
:200AA0008093E0071092E3071092E20720912001223041F41092E1071092E0079093E307AC
:200AC0008093E20783E090E09093DD078093DC0789E190E09093DF078093DE074BE050E014
:200AE0006FE070E081E00E941E1C80ED97E00E94082681E090E09093E1078093E0071092EE
:200B0000E3071092E20720912001233041F41092E1071092E0079093E3078093E20783E087
:200B200090E09093DD078093DC0783E290E09093DF078093DE0748E050E06AE170E081E01E
:200B40000E941E1C80ED97E00E94082681E090E09093E1078093E0071092E3071092E20718
:200B600020912001243041F41092E1071092E0079093E3078093E20783E090E09093DD0724
:200B80008093DC078DE290E09093DF078093DE0744E050E062E270E081E00E941E1C80EDED
:200BA00097E00E94082681E090E09093E1078093E0071092E3071092E207209120012530DA
:200BC00041F41092E1071092E0079093E3078093E20783E090E09093DD078093DC0787E38A
:200BE00090E09093DF078093DE0745E050E066E270E081E00E941E1C80ED97E00E940826A6
:200C000044E050E060E070E0B5C581E08093E40780912001813051F41092E1071092E007DC
:200C200081E090E09093E3078093E20783E090E09093DD078093DC078FE090E09093DF0722
:200C40008093DE0746E050E06BE270E081E00E941E1C80ED97E00E94082681E090E09093C4
:200C6000E1078093E0071092E3071092E20720912001223041F41092E1071092E0079093EC
:200C8000E3078093E20783E090E09093DD078093DC0789E190E09093DF078093DE0746E09D
:200CA00050E061E370E081E00E941E1C80ED97E00E94082681E090E09093E1078093E007A9
:200CC0001092E3071092E20720912001233041F41092E1071092E0079093E3078093E20787
:200CE00083E090E09093DD078093DC0783E290E09093DF078093DE0746E050E067E370E05E
:200D000081E00E941E1C80ED97E00E94082681E090E09093E1078093E0071092E3071092DE
:200D2000E20720912001243041F41092E1071092E0079093E3078093E20783E090E090935D
:200D4000DD078093DC078DE290E09093DF078093DE0746E050E06DE370E081E00E941E1CA6
:200D600080ED97E00E94082681E090E09093E1078093E0071092E3071092E2072091200100
:200D8000253041F41092E1071092E0079093E3078093E20783E090E09093DD078093DC07DD
:200DA00087E390E09093DF078093DE0749E050E063E470E081E00E941E1C80ED97E00E94A5
:200DC00008264BE050E064E070E0D4C42223B9F08AE090E09093DD078093DC0789E190E0BF
:200DE0009093DF078093DE0746E050E06BE270E081E00E941E1C80ED97E00E9408268091FD
:200E0000FE058823C1F180E00E94B41CC090CA07D090CB07E090CC07F090CD07C091200144
:200E20002091AC053091AD054091AE055091AF05C701B6010E9447354B015C016C2F70E093
:200E400080E090E00E94E834A70196010E944735A50194010E94E91C6091200170E080E003
:200E600090E00E94E6346093A8057093A9058093AA059093AB0546E050E06BE270E07AC42F
:200E80002223B9F08AE090E09093DD078093DC0789E190E09093DF078093DE0746E050E05C
:200EA00061E370E081E00E941E1C80ED97E00E9408268091FE058823C1F181E00E94B41C69
:200EC000C090CA07D090CB07E090CC07F090CD07C09120012091AC053091AD054091AE055D
:200EE0005091AF05C701B6010E9447354B015C016C2F70E080E090E00E94E834A70196015F
:200F00000E944735A50194010E94E91C6091200170E080E090E00E94E6346093A805709340
:200F2000A9058093AA059093AB0546E050E061E370E020C42223B9F08AE090E09093DD07D1
:200F40008093DC0789E190E09093DF078093DE0746E050E067E370E081E00E941E1C80ED26
:200F600097E00E9408268091FE058823C9F11092FE0580E00E94B41C60912001C090CA0707
:200F8000D090CB07E090CC07F090CD0770E080E090E00E94E834A70196010E9447354B0101
:200FA0005C012091A8053091A9054091AA055091AB05C701B6010E944735A50194010E947C
:200FC000E91C6091200170E080E090E00E94E6346093AC057093AD058093AE059093AF0528
:200FE00046E050E067E370E0C5C32223B9F08AE090E09093DD078093DC0789E190E09093B7
:20100000DF078093DE0746E050E06DE370E081E00E941E1C80ED97E00E9408268091FE05F7
:201020008823C9F11092FE0581E00E94B41C60912001C090CA07D090CB07E090CC07F090AB
:20104000CD0770E080E090E00E94E834A70196010E9447354B015C012091A8053091A9050B
:201060004091AA055091AB05C701B6010E944735A50194010E94E91C6091200170E080E01E
:2010800090E00E94E6346093AC057093AD058093AE059093AF0546E050E06DE370E06AC30B
:2010A00081E08093E40780912001813051F41092E1071092E00781E090E09093E3078093A5
:2010C000E20783E090E09093DD078093DC078FE090E09093DF078093DE0747E050E06DE3D0
:2010E00071E081E00E941E1C80ED97E00E94082681E090E09093E1078093E0071092E3074C
:201100001092E20720912001223041F41092E1071092E0079093E3078093E20783E090E0FC
:201120009093DD078093DC0789E190E09093DF078093DE0744E050E064E471E081E00E94E7
:201140001E1C80ED97E00E94082681E090E09093E1078093E0071092E3071092E207209103
:201160002001253041F41092E1071092E0079093E3078093E20783E090E09093DD078093BB
:20118000DC0787E390E09093DF078093DE0749E050E063E470E081E00E941E1C80ED97E080
:2011A0000E9408264CE050E061E371E0E3C280912001209106013091070190E08217930773
:2011C00029F449E050E063E470E00AC0609120014FE0649FB00111246B517E4F4AE050E02B
:2011E00081E00E941E1C82E08093E40781E090E09093E1078093E0071092E3071092E20765
:2012000083E090E09093DD078093DC0789E190E09093DF078093DE0780ED97E00E9408266F
:201220004EE050E068E471E0A5C281E08093E40780912001813051F41092E1071092E007B2
:2012400081E090E09093E3078093E20783E090E09093DD078093DC078FE090E09093DF07FC
:201260008093DE0743E050E066E571E081E00E941E1C80ED97E00E94082681E090E09093A2
:20128000E1078093E0071092E3071092E20720912001223041F41092E1071092E0079093C6
:2012A000E3078093E20783E090E09093DD078093DC0789E190E09093DF078093DE0743E07A
:2012C00050E069E571E081E00E941E1C80ED97E00E94082681E090E09093E1078093E00778
:2012E0001092E3071092E20720912001233041F41092E1071092E0079093E3078093E20761
:2013000083E090E09093DD078093DC0783E290E09093DF078093DE0743E050E06CE571E032
:2013200081E00E941E1C80ED97E00E94082681E090E09093E1078093E0071092E3071092B8
:20134000E20720912001243041F41092E1071092E0079093E3078093E20783E090E0909337
:20136000DD078093DC078DE290E09093DF078093DE0747E050E06FE571E081E00E941E1C7A
:2013800080ED97E00E94082681E090E09093E1078093E0071092E3071092E20720912001DA
:2013A000253041F41092E1071092E0079093E3078093E20783E090E09093DD078093DC07B7
:2013C00087E390E09093DF078093DE0749E050E063E470E081E00E941E1C80ED97E00E947F
:2013E000082644E050E064E471E0C4C182E08093E40783E090E09093DD078093DC0789E1B3
:2014000090E09093DF078093DE074AE050E067E271E081E00E941E1C80ED97E00E94082676
:201420008091010190910201A0910301B09104010097A142B24161F0809101019091020105
:20144000A0910301B09104010097A242B24129F4809120018B3109F472C180910101909134
:201460000201A0910301B09104010097A342B24129F4809120018B3009F461C18091010143
:2014800090910201A0910301B09104010097A442B24109F0DFC480912001813209F0DAC425
:2014A0004EC181E08093E40780912001813051F41092E1071092E00781E090E09093E307A5
:2014C0008093E20783E090E09093DD078093DC078FE090E09093DF078093DE0745E050E00B
:2014E0006CE470E081E00E941E1C80ED97E00E94082681E090E09093E1078093E0071092E3
:20150000E3071092E20720912001223041F41092E1071092E0079093E3078093E20783E07E
:2015200090E09093DD078093DC0789E190E09093DF078093DE0745E050E062EA71E081E010
:201540000E941E1C80ED97E00E94082681E090E09093E1078093E0071092E3071092E2070E
:2015600020912001233041F41092E1071092E0079093E3078093E20783E090E09093DD071B
:201580008093DC0783E290E09093DF078093DE0745E050E067EA71E081E00E941E1C80EDDE
:2015A00097E00E94082681E090E09093E1078093E0071092E3071092E207209120012430D1
:2015C00041F41092E1071092E0079093E3078093E20783E090E09093DD078093DC078DE27B
:2015E00090E09093DF078093DE0742E050E065E570E081E00E941E1C80ED97E00E9408269D
:2016000081E090E09093E1078093E0071092E3071092E20720912001253041F41092E107F7
:201620001092E0079093E3078093E20783E090E09093DD078093DC0787E390E09093DF0765
:201640008093DE0749E050E063E470E081E00E941E1C80ED97E00E94082648E050E06AE10E
:2016600070E088C080910B01813039F48091200154E6859FC001112406C080912001AAE0CF
:201680008A9FC0011124909322058093210580912105909122050E94951F82E3809300015A
:2016A00082E390E09093DD078093DC0789E190E09093DF078093DE0744E050E067E271E08F
:2016C00081E00E941E1C80ED97E00E940826809120018A3018F484E4809300018091000193
:2016E00090E09093DD078093DC0789E190E09093DF078093DE07C0902105D09022050D2C6C
:20170000000CEE08FF08F7FE0EC06DE280ED97E00E949D1444275527BA014C195D096E0993
:201720007F092AE003C02AE0B701A60180ED97E00E940C2645E050E06CE470E01BC049E03A
:2017400050E063E470E081E00E941E1C8FE090E09093DD078093DC0789E190E09093DF07C6
:201760008093DE0780ED97E00E94082640E150E062E971E081E00E941E1C8091FB058823D7
:2017800009F49FC21092FB0521E020931D018091010190910201A0910301B091040100972E
:2017A00030E1A30732E1B30709F401C170F5009750E2A50751E1B50709F4D2C098F4009768
:2017C000A10531E1B30709F47AC0009740E1A40741E1B40709F4C4C00097A105B04109F474
:2017E0004AC06AC2009720E4A20721E1B20709F4B7C00097A10532E1B30709F4B6C000972C
:20180000A043B14109F058C2ABC0009753E2A50752E1B50709F484C1A0F4009741E2A407D3
:2018200042E1B40709F47CC1009752E2A50752E1B50709F475C10097A042B24109F42AC1A3
:201840003BC20097A10533E1B30709F4EEC130F40097A442B24109F463C12EC2009720E197
:20186000A20723E1B20709F40EC20097A105B44109F40EC221C280912001833009F403C2AC
:2018800038F4813009F46CC0823009F444C114C2843031F0853009F00FC20E94F41F0CC2E1
:2018A00080E090E0A0E0B4E18093010190930201A0930301B093040182E090E0F7C18091EE
:2018C0002001833091F150F4813081F0823009F0F3C180E090E0A0E2B1E10CC0843009F090
:2018E000C9C180E090E0A0E4B1E123C080E090E0A0E1B1E18093010190930201A093030140
:20190000B09304018AE290E090930701809306016091A8057091A9058091AA059091AB0580
:201920000E94EF3760932001C7C180E090E0A0E3B1E18093010190930201A0930301B093A9
:2019400004018AE290E090930701809306016091AC057091AD058091AE059091AF05E0CFC4
:2019600080E090E0A0E0B1E197C180912001823009F456C1853009F48BC1813009F09AC132
:2019800080E090E0A0E1B2E18093010190930201A0930301B093040141E050E06FEA7BE0A4
:2019A00081E00E941E1C8091F70590E07FC1609120014FE0649FB001112461517E4F41E063
:2019C00050E081E00E941E1C8091F70580931D01609120015FE0659FB001112460517E4FA3
:2019E00041E050E081E00E941E1CC091F705D0E0609120018FE0689FB00111246F507E4F62
:201A000041E050E081E00E941E1CDC2FCC278091F705C80FD11DD0931F01C0931E01609182
:201A200020019FE0699FB00111246E507E4F41E050E081E00E941E1CC091F705D0E0D0939F
:201A40009B05C0939A0560912001AFE06A9FB00111246D507E4F41E050E081E00E941E1C4C
:201A6000DC2FCC278091F705C80FD11DD093FA05C093F90580912001209106013091070130
:201A800090E02817390709F003C11092FA051092F905FEC0809120018330F9F050F48130D8
:201AA00069F0823009F006C180E090E0A2E2B2E109C0843009F1853071F1FCC080E090E05A
:201AC000A1E2B2E18093010190930201A0930301B09304018BE190E0E9C080E090E0A3E25C
:201AE000B2E18093010190930201A0930301B09304018BE090E0DAC080E090E0A4E2B2E13B
:201B00008093010190930201A0930301B093040181E290E0CBC080E090E0A0E0B2E1BCC04E
:201B200080912001C0919C05D0919D05BE0165507109B6E08B9F600D711D112441E050E04F
:201B400083E00E941E1C8091F70580931D0180912001BE016450710926E0829F600D711DC7
:201B6000112441E050E083E00E941E1C0091F70510E080912001BE016350710936E0839FCD
:201B8000600D711D112441E050E083E00E941E1C8091F705102F0027080F111D10931F010A
:201BA00000931E0180912001BE016250710946E0849F600D711D112441E050E083E00E9487
:201BC0001E1C0091F70510E010939B0500939A0580912001BE016150710956E0859F600DF6
:201BE000711D112441E050E083E00E941E1C8091F705102F0027080F111D1093FA050093A5
:201C0000F90580912001209106013091070190E08217930709F050C01092FA051092F90526
:201C200080E090E0A0E2B2E137C080912001823021F1F0F4813009F03FC080E090E0A0E1F4
:201C4000B3E18093010190930201A0930301B09304018CE390E09093070180930601809101
:201C600021059091220564E670E00E944B395ACE833031F0853061F01FC020930B011CC0BA
:201C800080930B0119C080E090E0A0E0B3E104C080E090E0A0E0B0E1809301019093020188
:201CA000A0930301B093040185E090E090930701809306010E94AE2081E0809305010E94FF
:201CC000CF0381E08093E40781E090E09093E1078093E0071092E3071092E20780910501CF
:201CE000882309F46CC083E090E09093DD078093DC079093DF078093DE0780ED97E00E94B9
:201D0000082601E010E020E830E04CE050E060E070E080ED97E00E94A311C091DA07D091F3
:201D2000DB07E090D807F090D907670188E0C81AD108960140E050E064E070E080ED97E028
:201D40000E949118AE0141505109960164E070E080ED97E00E9491186E0198E0C91AD108A1
:201D6000960144E050E060E070E080ED97E00E949D18B70161507109960144E050E080ED72
:201D800097E00E949D1841E064E070E084E090E00E940923A5E0EA1AF10842E064E070E0E6
:201DA000C7010E940923259744E0BE01C7010E94092348E0BE0184E090E00E94092386E663
:201DC00090E09093DD078093DC0783E090E09093DF078093DE0744E050E067E271E081E073
:201DE0000E941E1C80ED97E00E94082682E780930001809120018A3018F488E7809300015B
:201E00008091000190E09093DD078093DC0783E090E09093DF078093DE074091200150E04D
:201E200060E070E02AE080ED97E00E940C260E94BC21109205011092FE05DF91CF911F9104
:201E40000F91FF90EF90DF90CF90BF90AF909F908F9008958091200190E0019726E0289F86
:201E6000B001299F700D112480919C0590919D05680F791F41E050E083E066CCFC01538DF0
:201E8000448D252F30E0842F90E0821B930B541710F0CF96089501970895FC01918D828DE3
:201EA000981761F0828DDF01A80FB11D5D968C91928D9F5F9F73928F90E008958FEF9FEF35
:201EC0000895FC01918D828D981731F0828DE80FF11D858D90E008958FEF9FEF0895FC0192
:201EE000918D228D892F90E0805C9F4F821B91098F739927089588EF96E00E946F0F21E07F
:201F0000892B09F420E0822F0895FC01848DDF01A80FB11DA35ABF4F2C91848D90E001966F
:201F20008F739927848FA689B7892C93A089B1898C91837080648C93938D848D981306C086
:201F40000288F389E02D80818F7D80830895EF92FF920F931F93CF93DF93EC0181E0888F22
:201F60009B8D8C8D981305C0E889F989808185FD26C0F62E0B8D10E00F5F1F4F0F73112712
:201F8000E02E8C8DE8120CC00FB607FCFACFE889F989808185FFF5CFCE010E94850FF1CFC2
:201FA0008B8DFE01E80FF11DE35AFF4FF0829FB7F8940B8FEA89FB89808180620AC09FB792
:201FC000F894EE89FF896083E889F98980818370806480839FBF81E090E0DF91CF911F9116
:201FE0000F91FF90EF900895CF93DF93EC01888D8823C9F0EA89FB89808185FD05C0A889EC
:20200000B9898C9186FD0FC00FB607FCF5CF808185FFF2CFA889B9898C9185FFEDCFCE019E
:202020000E94850FE7CFDF91CF91089580E090E0892B29F00E947B0F81110C9400000895AF
:20204000833081F028F4813099F08230A1F008958730A9F08830B9F08430D1F4809180006B
:202060008F7D03C0809180008F7780938000089584B58F7702C084B58F7D84BD0895809195
:20208000B0008F7703C08091B0008F7D8093B00008950F931F93CF93DF93DC0155968C918D
:2020A0005597823071F0833009F1813009F08CC01496ED91FC911597E41BF50BE21BF30B23
:2020C00020C01496ED91FC911597CF01861B970BBC01615071091696ED91FC911797CF018F
:2020E000841B950BAC01421B530B6EC01696ED91FC911797CF01861B970BBC0161507109AB
:20210000FA0177FD1BC116968D919C911797681779070CF013C1F7FF04C02E0F3F1FE0E0EB
:20212000F0E014968D919C911597AF01420F531F841795071CF49C012E1B3F0B1216130603
:202140000CF0FCC0CB0177FD079643E0959587954A95E1F79695982F882797958795E80FEA
:20216000F91FEF5DFE4F6770772781E090E001C0880F6A95EAF7482F0130110541F088F0C9
:202180000230110509F0DAC02E0F3F1F15C02E0F3F1FE217F30709F4D1C08081842B819314
:2021A000F8CF80952E0F3F1FE217F30709F4C6C0908198239193F8CFE217F30709F4BEC00D
:2021C000808184278193F8CF77FDB8C014968D919C911597681779070CF0B0C057FF04C066
:2021E000240F351F40E050E016968D919C911797FA01E20FF31F8E179F071CF49C01241B2E
:20220000350B121613060CF099C0A22F842F86958695869590E8899F600D711D1124FB0147
:20222000EF5DFE4F4770A9F198E0941B492F50E0EA01C05DDA4F8881291790F4421B510930
:202240002FEF30E002C0359527954A95E2F782230130110541F068F00230110589F06EC0EC
:202260000130110519F42081822B0CC00130110520F480952081822305C00230110531F408
:20228000208182278083A91708F458C0A91BE058FF4FA83048F10230110559F4EF018A2F84
:2022A000988190959883C058DF4F88508830C0F730C081E00130110509F080E08195EF0141
:2022C0009A2F8883C058DF4F98509830D0F788EF8A0F86958695869590E8899FE00DF11D71
:2022E0001124E058FF4FA770AA2341F1B0E0A85DBA4F8C910130110529F038F00230110582
:20230000E9F419C09081892B18C080959081892314C088EF8A0F86958695869590E8899FC3
:20232000E00DF11D1124E058FF4FA77039F0B0E0A85DBA4F8C91908189278083DF91CF9158
:202340001F910F9108950F931F93CF93DF93DC01FB0155968C915597823089F0833021F1AB
:20236000813009F0E7C014968D919C911597BC01641B750BAB0141505109BF011DC01496D1
:202380006D917C911597CB018E1B9F0BFC0116968D919C911797BC01641B750BAB014150CC
:2023A0005109E21BF30BC6C016966D917C9117976E1B7F0B621B730B57FD1BC114968D91D7
:2023C0009C911597481759070CF013C177FF04C0260F371F60E070E016968D919C9117979B
:2023E000FB01E20FF31F8E179F071CF49C01261B370B121613060CF0FCC0A22F862F8695C9
:202400008695869590E8899F400D511D1124FA01EF5DFE4F6770A9F198E0961B492F50E020
:20242000EA01C05DDA4F8881291790F4421B51092FEF30E002C0359527954A95E2F7822314
:202440000130110541F068F00230110589F0D1C00130110519F42081822B0CC001301105A5
:2024600020F480952081822305C00230110531F4208182278083A91708F4BBC0A91BE0583B
:20248000FF4FA83048F10230110559F4EF018A2F988190959883C058DF4F88508830C0F7B9
:2024A00033C081E00130110509F080E08195EF019A2F8883C058DF4F98509830D0F788EF1A
:2024C0008A0F86958695869560E8869FE00DF11D1124E058FF4FA770AA2309F48AC0B0E034
:2024E000A85DBA4F8C910130110531F040F00230110509F07EC01BC09081892B03C0809522
:2025000090818923808375C088EF8A0F86958695869570E8879FE00DF11D1124E058FF4F31
:20252000A77009F466C0B0E0A85DBA4F8C9190818927E8CF57FD5DC016968D919C91179718
:20254000481759070CF055C0F7FF04C02E0F3F1FE0E0F0E014968D919C911597BF01620FF4
:20256000731F861797071CF49C012E1B3F0B121613060CF03EC0CA0157FD079663E09595EA
:2025800087956A95E1F79695982F882797958795E80FF91FEF5DFE4F4770552781E090E0B3
:2025A00001C0880F4A95EAF7482F0130110539F078F002301105E9F42E0F3F1F13C02E0FE4
:2025C0003F1FE217F307A9F08081842B8193F9CF80952E0F3F1FE217F30759F090819823CD
:2025E0009193F9CFE217F30721F0808184278193F9CFDF91CF911F910F910895FC0177FD35
:202600009AC080859185681779070CF094C057FD92C082859385481759070CF08CC085891C
:20262000823009F07CC084819581DC01A61BB70BBD016150710986819781FC01E41BF50B34
:20264000AF01415051090AC0813041F484819581841B950BAB01BC016150710921303105BA
:2026600029F008F122303105E1F10895FA0157FD3796A3E0F595E795AA95E1F7F695FE2FDD
:20268000EE27F795E7956E0F7F1FFB01EF5DFE4F4770552781E090E001C0880F4A95EAF751
:2026A0009081892B3AC0FA0157FD379623E0F595E7952A95E1F7F695FE2FEE27F795E795CA
:2026C0006E0F7F1FFB01EF5DFE4F4770552781E090E001C0880F4A95EAF78095908189235C
:2026E0001CC0FA0157FD379683E0F595E7958A95E1F7F695FE2FEE27F795E7956E0F7F1F92
:20270000FB01EF5DFE4F4770552781E090E001C0880F4A95EAF790818927808308958330F4
:2027200009F092CF86819781861B970BBA01AC014150510993CF08950895FC016370658B2E
:202740008481958126813781613039F0633029F09187808733872287089531872087938701
:20276000828708956F927F928F929F92AF92BF92CF92DF92EF92FF920F931F93CF93DF93B1
:20278000EC014B015A0169013801E881F9810284F385E02D0995E881F9810288F389E02D80
:2027A00087019601A501B401CE010995A501460D571D41505109E881F9810288F389E02DE4
:2027C0009601B401CE010995E881F9810088F189E02D9301A501B401CE010995C80CD91C29
:2027E000B60161507109E881F9810088F189E02D9301A501CE010995E881F9810688F7896D
:20280000E02DCE01DF91CF911F910F91FF90EF90DF90CF90BF90AF909F908F907F906F90F6
:2028200009948F929F92AF92BF92CF92DF92EF92FF920F931F93CF93DF934C016B015A01F7
:20284000E901DC01ED91FC916217730781F40417150724F48B2D5801042F182F0A191B091D
:2028600098012F5F3F4F048CF58DE02D12C04017510709F52617370724F48D2D6901C62F59
:20288000D82F9E012C193D092F5F3F4F068CF78DE02D8701A501B601C4010995DF91CF91B0
:2028A0001F910F91FF90EF90DF90CF90BF90AF909F908F9008950284F385E02D0995D401F5
:2028C000ED91FC910488F589E02D9E01A501B601C4010995D401ED91FC910688F789E02D7C
:2028E000C401DF91CF911F910F91FF90EF90DF90CF90BF90AF909F908F900994EF92FF928C
:202900000F931F93DC011A960D911C911B9718962D913C911997ED91FC9100A0F1A1E02DA6
:202920007B0140E050E060E070E009951F910F91FF90EF9008950E947939AF92BF92CF925B
:20294000EF92FF920F931F93CF93DF93EC01262F888D998D009709F040C06A3059F41D86A6
:202960001C862C898E859F8538E0239F800D911D112441C06D3009F4AAC08E898823C1F007
:202980003C898C859D8546E0349F800D911D112448855985481759075CF41D861C868E85C4
:2029A0009F8548E0349F800D911D11249F878E87EA88FB88088919894E855F856C857D857B
:2029C000CC88CE010E94C6232C898C859D8536E0239F800D911D112442C06A3079F41D866D
:2029E0001C862C89FC013696E4918E859F852E9F800D911D11249F878E8769C06D3009F4D0
:202A000066C0FC0134963491631708F460C03196E491E61708F45BC0FC013296659174915E
:202A2000422F50E0431B510937E0349F5001359FB00C1124A60EB71EF5013296349131966A
:202A4000E491332311F0E1110DC0F5013496E4912C898C859D85E29F800D911D11249D87B9
:202A60008C8735C0F501359644915E89552311F16C89E32FF0E0E40FF11D47FDFA956E9F9F
:202A8000D0016F9FB00D11244C855D854A0F5B1FE885F985E417F5076CF41D861C86FC015B
:202AA0003696E4918E859F856E9F800D911D11249F878E87EA88FB88088919894E855F8507
:202AC0006C857D85CC88CE010E94C623BECF81E090E0DF91CF911F910F91FF90EF90CF906A
:202AE000BF90AF9008951F920F920FB60F9211242F933F934F935F936F937F938F939F93EE
:202B0000AF93BF93EF93FF9388EF96E00E94850FFF91EF91BF91AF919F918F917F916F91EA
:202B20005F914F913F912F910F900FBE0F901F9018951F920F920FB60F9211242F938F93FD
:202B40009F93EF93FF93E0910807F09109078081E0910E07F0910F0782FD12C0908180918D
:202B600011078F5F8F7320911207821751F0E0911107F0E0E850F94F958F8093110701C0C0
:202B80008081FF91EF919F918F912F910F900FBE0F901F901895CF93DF93282F30E0F90178
:202BA000ED5CFD4F8491F901ED50FE4FD491F901EF5EFD4FC491CC2391F081110E942010C6
:202BC000EC2FF0E0EE0FFF1FE75DFD4FA591B491EC91ED2381E090E021F480E002C080E0EF
:202BE00090E0DF91CF9108951F93CF93DF93282F30E0F901ED5CFD4F8491F901ED50FE4FE3
:202C0000D491F901EF5EFD4FC491CC23C1F0162F81110E942010EC2FF0E0EE0FFF1FE95FD0
:202C2000FD4FA591B4919FB7F894111104C08C91D095D82302C0EC91DE2BDC939FBFDF9103
:202C4000CF911F910895CF93DF9390E0FC01ED50FE4F2491FC01EF5EFD4F8491882361F19F
:202C600090E0880F991FFC01E751FE4FC591D491FC01E95FFD4FA591B491611109C09FB7BB
:202C8000F8948881209582238883EC912E230BC0623061F49FB7F8948881322F3095832303
:202CA0008883EC912E2B2C939FBF06C08FB7F894E8812E2B28838FBFDF91CF9108953FB760
:202CC000F89480911C0690911D06A0911E06B0911F0626B5A89B05C02F3F19F00196A11D87
:202CE000B11D3FBFBA2FA92F982F8827820F911DA11DB11DBC01CD0142E0660F771F881FA7
:202D0000991F4A95D1F708958F929F92AF92BF92CF92DF92EF92FF926B017C010E945F16EF
:202D20004B015C01C114D104E104F104F1F00E945F16DC01CB0188199909AA09BB09883E45
:202D40009340A105B10570F321E0C21AD108E108F10888EE880E83E0981EA11CB11CC114C5
:202D6000D104E104F10419F7DDCFFF90EF90DF90CF90BF90AF909F908F9008951F920F9241
:202D80000FB60F9211242F933F938F939F93AF93BF938091180690911906A0911A06B0911B
:202DA0001B063091170623E0230F2D3720F40196A11DB11D05C026E8230F0296A11DB11D1B
:202DC000209317068093180690931906A0931A06B0931B0680911C0690911D06A0911E062D
:202DE000B0911F060196A11DB11D80931C0690931D06A0931E06B0931F06BF91AF919F9150
:202E00008F913F912F910F900FBE0F901F9018951F920F920FB60F9211242F933F934F9338
:202E20005F936F937F938F939F93AF93BF93EF93FF938091160687FF05C01092850010924F
:202E400084001BC020911606022E000C330B8091C50790E02817390784F480911606082E25
:202E6000000C990BFC01EE0FFF1F8E0F9F1FFC01EF55F84F808186FD15C0809116068F5F33
:202E80008093160620911606022E000C330B8091C50790E028173907C4F4809116068C304F
:202EA00064F113C080911606082E000C990BFC01EE0FFF1F8E0F9F1FFC01EF55F84F8081DB
:202EC00060E08F730E94F415D8CF8091840090918500049680349C4918F480E49CE905C036
:202EE0008091840090918500049690938900809388008FEF809316063BC020918400309118
:202F0000850080911606082E000C990BFC01EE0FFF1F8E0F9F1FFC01EF55F84F8181928109
:202F2000820F931F909389008093880080911606082E000C990BFC01EE0FFF1F8E0F9F1F81
:202F4000FC01EF55F84F808186FF12C080911606082E000C990BFC01EE0FFF1F8E0F9F1F0B
:202F6000FC01EF55F84F808161E08F730E94F415FF91EF91BF91AF919F918F917F916F91DA
:202F80005F914F913F912F910F900FBE0F901F9018954F925F926F927F928F929F92AF92F3
:202FA000BF92CF92DF92EF92FF920F931F93CF93DF936C012B015A0139014801DC01ED91E2
:202FC000FC910284F385E02D0995E201640C751CD601ED91FC91C615D7055CF40088F189EC
:202FE000E02D87019401A501BE01C60109952196EFCF0688F789E02DC601DF91CF911F9106
:203000000F91FF90EF90DF90CF90BF90AF909F908F907F906F905F904F9009948F929F928D
:20302000AF92BF92CF92DF92EF92FF920F931F93CF93DF93EC015B014A016901E881F98111
:203040000284F385E02D099595012C0D3D1D21503109E881F9810488F589E02D78018401FB
:20306000A401B501CE010995E881F9810688F789E02DCE01DF91CF911F910F91FF90EF908D
:20308000DF90CF90BF90AF909F908F9009948F929F92AF92BF92CF92DF92EF92FF920F937F
:2030A0001F93CF93DF93EC015B014A0169017801E881F9810284F385E02D0995C80CD91CBE
:2030C000860101501109E881F9810488F589E02D9501A401B501CE010995E881F981068835
:2030E000F789E02DCE01DF91CF911F910F91FF90EF90DF90CF90BF90AF909F908F900994FF
:203100000895EF92FF920F931F93DC01ED91FC9100A0F1A1E02D09951F910F91FF90EF9089
:2031200008950F931F93DC01ED91FC91068CF78DE02D09951F910F9108950F931F93DC01D7
:20314000ED91FC91048CF58DE02D09951F910F910895DC01ED91FC910084F185E02D09942E
:203160002F923F924F925F926F927F928F929F92AF92BF92CF92DF92EF92FF920F931F93BD
:20318000CF93DF9300D000D000D0CDB7DEB72C017E836D836A015901C801FC82EB824801F2
:2031A000841A950A97FE03C091948194910835012D813E81621A730A77FE03C071946194D9
:2031C0007108681479045CF43A2D2B2D5C01832F922F3D812E81DE82CD82C32ED22EAD8163
:2031E000BE81AA16BB065CF43C2D2D2D6C01832F922F3D812E81BE82AD82A32EB22E850109
:203200002D813E81021B130B1C012C183D0837FE03C0319421943108780117FF03C03FEF35
:20322000E31AF30AF594E794C816D9062CF08FEF9FEF9A83898304C0A1E0B0E0BA83A98344
:203240002D813E81A216B30624F1D201ED91FC910484F585E02D2B813C816814790424F414
:203260004D815E81B60103C0A6016D817E81C2010995E218F308F7FE06C029813A81C20E4D
:20328000D31EE00EF11E8D819E8101969E838D83D7CF26960FB6F894DEBF0FBECDBFDF9132
:2032A000CF911F910F91FF90EF90DF90CF90BF90AF909F908F907F906F905F904F903F90FB
:2032C0002F90089585ED8093BC008091BC0084FDFCCF1092D306089540916406262F30E080
:2032E000240F311D21323105DCF42091D3062430C9F4FC0180E090E0861758F43091640678
:203300002191DC01AC5BB94FA30FB11D2C930196F3CF80916406680F6093640680E008952B
:2033200081E0089582E0089508950895E091AC068091AB06E81730F4F0E0EC5DF94F8081EC
:2033400090E008958FEF9FEF08959091AC068091AB06981750F4E92FF0E0EC5DF94F208115
:2033600030E09F5F9093AC0602C02FEF3FEFC90108958091AB0690E02091AC06821B910929
:203380000895CF92DF92EF92FF920F931F93CF93DF937C01CB018A012091D406222389F067
:2033A000EB016B01C40ED51ECC15DD0569F06991D701ED91FC910190F081E02DC701099582
:2033C000F3CF642F0E946C19C801DF91CF911F910F91FF90EF90DF90CF900895CF93DF933B
:2033E0001F92CDB7DEB769832091D4062223D1F02091F706203240F021E030E0FC01338392
:20340000228380E090E015C08091D506E82FF0E0EA52F94F998190838F5F8093D5068093EF
:20342000F70605C061E0CE0101960E946C1981E090E00F90DF91CF910895089580E090E0B2
:2034400008954F925F926F927F928F929F92AF92BF92CF92DF92EF92FF920F931F93CF936D
:20346000DF93D82EC62E79018090090190900A01800E911CA12CB12C07E0E114F10409F46E
:2034800096C00E945F164090C6075090C7076090C8077090C9079B01AC01241935094609D2
:2034A0005709281539054A055B0538F36093C6077093C7078093C8079093C907CC20D1F143
:2034C00010912306E12F012E000CFF0BE65CFA4FC0816C2F617088E00E94F415D0E0BE0113
:2034E00075956795617087E00E94F415BE017595679575956795617086E00E94F41553E003
:20350000D595C7955A95E1F76C2F617085E00E94F415DD2031F01F5F183034F010922306CF
:2035200042C0115017FD03C0109323063CC00093230639C010912206E12F012E000CFF0BB6
:20354000E65CFA4FC0816C2F61708AE00E94F415D0E0BE017595679561708BE00E94F415C2
:20356000BE01759567957595679561708CE00E94F41523E0D595C7952A95E1F76C2F6170CC
:203580008DE00E94F415DD2031F01F5F183034F01092220608C0115017FD03C01093220676
:2035A00002C00093220631E0E31AF10866CF1092B0051092B1051092B2051092B305DF9180
:2035C000CF911F910F91FF90EF90DF90CF90BF90AF909F908F907F906F905F904F9008950A
:2035E0001F920F920FB60F9211242F933F934F935F936F937F938F939F93AF93BF93EF93F8
:20360000FF938091B900887F803609F49CC068F5883209F45BC090F4803109F454C038F497
:20362000882309F4F6C0883009F44DC0F6C0883109F44CC0803209F45DC0EFC0803409F4C6
:2036400068C048F4803309F455C0883309F0E5C08093D106D8C0803509F44FC0883509F4EB
:203660005DC0883409F0D9C0D6C0883909F4C7C0A8F4883709F467C038F4883609F463C07B
:20368000803709F460C0C9C0883809F4B8C0803909F45FC0803809F0C0C05BC0803B09F4BF
:2036A00086C038F4803A09F466C0883A09F47FC0B4C0803C09F4A7C0883C09F4A4C0883B41
:2036C00009F48AC0AAC08091AE0610C09091D0068091CF06981770F5E091D00681E08E0F6E
:2036E0008093D006F0E0E155F94F80818093BB0085EC86C08093D1068EC0E091D00681E02D
:203700008E0F8093D0068091BB00F0E0E155F94F80839091D0068091CF066EC0E091D006B4
:2037200081E08E0F8093D0068091BB00F0E0E155F94F80838091D20681116DC081E0809369
:20374000AD0684EA61C083E08093D30610928606CFCF80918606803208F051C0E0918606B7
:2037600081E08E0F809386068091BB00F0E0EA59F94F8083BDCF85EC8093BC001092D3063B
:2037800080918606803230F4E0918606F0E0EA59F94F10826091860670E0E091A706F09160
:2037A000A80686E696E009951092860636C084E08093D3061092650610926406E091A9062E
:2037C000F091AA06099580916406811105C081E08093640610924406E091650681E08E0FA4
:2037E00080936506F0E0EC5BF94F80818093BB009091650680916406981708F479CF85E8B6
:203800008093BC000AC085EC8093BC001092D30604C01092D1060E946219FF91EF91BF919A
:20382000AF919F918F917F916F915F914F913F912F910F900FBE0F901F901895EF92FF920F
:203840000F931F93CF93DF93D62F672FC42F27E8E22E26E0F22E27EA36E0F70111922E1766
:203860003F07E1F7823029F0833031F402E510E005C001E510E002C000E510E081E080930A
:20388000D4060093F6061092D5061092F70685E997E00E94EE196D2F85E997E00E94EE19EB
:2038A00081E00E9416218091D3068111FCCF4C2FC13208F040E281E08093D3068093D206C7
:2038C0009FEF9093D1061092D006940F9093CF068093AE068091AE06000F111F082B0093BC
:2038E000AE068091AD06813061F41092AD068091AE068093BB008091BC0083FDF8CF85ECDD
:2039000001C085EE8093BC008091D3068130E1F38091D006841710F44091D006EFEAF6E059
:20392000A4E2B6E080E0841721F091919D938F5FFACF1092AC068093AB069091AB0680915B
:20394000AC06981751F085E997E00E94A5198093F705F70181937F01F0CFDF91CF911F91A6
:203960000F91FF90EF900895CF93C82F0E94B022C1110DC060E083E00E94F41580910B0125
:20398000813001F58CEF98E00E94772211C0C13079F480910B01813021F48CEB92E00E94B5
:2039A000772280910B01833019F461E00E94F41580910B01813031F468E572E080E090E043
:2039C0000E94841662E370E080E090E0CF910C9484162F923F924F925F926F927F928F9215
:2039E0009F92AF92BF92CF92DF92EF92FF920F93CF93DF93CDB7DEB76E970FB6F894DEBF9E
:203A00000FBECDBF69017A012091A4053091A5054091A6055091A70529873A874B875C8774
:203A20002091A0053091A1054091A2055091A3052D873E874F87588B29853A854B855C8578
:203A40000E947B362B013C012D853E854F855889C701B6010E947B366B017C01A30192018E
:203A6000C301B2010E9447354B015C01A7019601C701B6010E9447359B01AC01C501B40168
:203A80000E947C360E94E03820E030E040E251E40E9476370E945A370E94E8377A8B698B75
:203AA000AB01440F551F5C834B834115510509F493C1BA01550F880B990B0E94E8344B0189
:203AC0005C019B01AC01C301B2010E9476376D8B7E8B8F8B988FA5019401C701B6010E94DC
:203AE0007637698F7A8F8B8F9C8F61E084E00E94F4158B819C8101979A838983222423949C
:203B0000312C2B813C81221533050CF465C1809108016101032C000CEE08FF08882309F4EE
:203B200095C010929F0510929E054091CE075091CF075E834D834215530508F442C08989D8
:203B40009A8982159305ECF18091090190910A01883E23E09207A8F568EE73E0681B790B40
:203B600080E090E00E94E6344B015C014D815E81BA0180E090E00E94E6349B01AC01C5010D
:203B8000B4010E9476372B013C01C701B6010E94E8349B01AC01C301B2010E94473520E09D
:203BA00030E040E85FE30E947B369B01AC01C501B4010E947B360E94EF3770939F056093BF
:203BC0009E058D819E8129813A8128173907F0F549895A8942175307CCF1809109019091EB
:203BE0000A01883E53E0950788F568EE73E0681B790B80E090E00E94E6344B015C01298119
:203C00003A81B901330F880B990B0E94E834A50194010E9447352B013C014D815E81BA01CE
:203C200080E090E00E94E6349B01AC01C301B2010E9476379B01AC01C501B4010E947B36D2
:203C40000E94EF3770939F0560939E05C701B6010E94E8346B017C019B01AC016D897E89F3
:203C60008F89988D0E94473529853A854B855C850E947C362091A4053091A5054091A60536
:203C80005091A7050E947B360E94E8374B015C017E8F6D8FA7019601698D7A8D8B8D9C8D54
:203CA0000E9447352D853E854F8558890E947C362091A0053091A1054091A2055091A305AA
:203CC0000E947B360E94E8376D837E838F8398878D819E819C8B8B8B2401092C000C660870
:203CE00077086C01092E000CEE08FF088114910419F4892B91F433C08D8D9E8D97FF0DC08D
:203D00002227332728193909032E000C440B550B00919E0561E080E006C000919E05A3011E
:203D2000920161E081E00E94211A2B893C8937FF0EC02D813E81319521953109032E000C94
:203D4000440B550B00919E0560E080E006C000919E05A701960160E081E00E94211AC30165
:203D6000B2010E94E8349B01AC016091A4057091A5058091A6059091A7050E947C36609374
:203D8000A4057093A5058093A6059093A705C701B6010E94E8349B01AC016091A005709123
:203DA000A1058091A2059091A3050E947C366093A0057093A1058093A2059093A30581E061
:203DC000809308013FEF231A330A49815A81415051095A83498395CE6E960FB6F894DEBF91
:203DE0000FBECDBFDF91CF910F91FF90EF90DF90CF90BF90AF909F908F907F906F905F9045
:203E00004F903F902F9008958F929F92AF92BF92CF92DF92EF92FF921F93CF93DF93182F03
:203E20004A015B018091B5059091B60527EB35E06901032E000CEE08FF08C80ED91EE11C9F
:203E4000F11CC901823091050CF441C0FC0120812223E9F1AC01092E000C660B770B4C1541
:203E60005D056E057F059CF521132BC0EC012196183561F4CE010E943C316093A805709372
:203E8000A9058093AA059093AB050DC0193559F4CE010E943C316093AC057093AD0580932D
:203EA000AE059093AF05CE01DF91CF911F91FF90EF90DF90CF90BF90AF909F908F900C94D1
:203EC0003C3160E270E00E947E390196BBCFC501B401DF91CF911F91FF90EF90DF90CF9092
:203EE000BF90AF909F908F90089560E084E00E94F415E091FE07F0E0CF01880F991FE80F9E
:203F0000F91FEF55F84F80818F7B808360E083E00E94F41542E150E06BE670E081E00E94AB
:203F20001E1C87E896E00C94F525CF92DF92EF92FF92CF93DF93813727E1920714F080E72C
:203F400097E19093220580932105C0912105D09122052091CA073091CB074091CC075091CD
:203F6000CD0760EC71EE84E69CE40E9476376B017C01BE010D2E000C880B990B0E94E834A5
:203F80009B01AC01C701B6010E9476370E94EF3770930A0160930901CE0162E370E00E9431
:203FA0004B397093CF076093CE07DF91CF91FF90EF90DF90CF900895E7EBF5E0119285E0E4
:203FC000E73FF807D9F71092B6051092B50586E995E00E94F52588EF96E00E94F40F10925F
:203FE000F8051092B40508950F931092FA051092F9051092F80561E084E00E94F41580EA90
:204000009FE00E94951F60E083E00E94F4150E94B0228CEF98E00E94772260E971E080E0E1
:2040200090E00E94841600E028E532E040E050E061E080E00E94211A28E532E040E050E098
:2040400060E080E00E94211A22E030E040E050E061E081E00E94211A22E030E040E050E0A0
:2040600060E081E00E94211A1092A4051092A5051092A6051092A7051092A0051092A10501
:204080001092A2051092A3051092A8051092A9051092AA051092AB051092AC051092AD05A4
:2040A0001092AE051092AF050E94751F40E150E067E171E081E00E941E1C87E896E00E9471
:2040C000F5254CE050E06DEC70E081E00E941E1C87E896E00E94F52540E150E067E171E0F9
:2040E00081E00E941E1C87E896E00E94F52542E150E067E570E081E00E941E1C87E896E0D1
:204100000E94F52549E050E06DE770E081E00E941E1C88EF96E00E9408260E94552643E1AB
:2041200050E064E071E081E00E941E1C87E896E00E94F52540E150E067E171E081E00E94EF
:204140001E1C87E896E00E94F52564E670E080E090E00E9484160F910C94DC1F10922106DA
:204160001092200681E08093200108959091F107992339F08EBD00000DB407FEFDCF8EB527
:20418000089528E030E040E8E091F407F091F50750819091FB07909595239083E091F2070B
:2041A000F091F3079091FA07582F542319F05081952B03C05081909595239083E091F407DA
:2041C000F091F50750819091FB07952B9083469521503109C9F60895CF92DF92EF92FF92D5
:2041E0000F931F93CF93DF936C017A018B01C0E0D0E0CE15DF0581F0D8016D918D01D6015F
:20420000ED91FC910190F081E02DC6010995892B11F02196EECF7E01C701DF91CF911F912F
:204220000F91FF90EF90DF90CF900895282F3091F706313208F04AC08091D3068111FCCFA4
:204240009091F60642E04093D3062093D2062FEF2093D1061092D0063093CF06E6EDF6E087
:20426000AFEAB6E020E0321721F041914D932F5FFACF1092AE062091AE06990F922B909369
:20428000AE069091AD06913061F41092AD069091AE069093BB009091BC0093FDF8CF95ECC3
:2042A00001C095EE9093BC009091D3069230E1F39091D1069F3F79F08091D106803241F041
:2042C0008091D106803331F084E005C081E003C082E001C083E01092D5061092F706109291
:2042E000D4060895CF93C82F8091EC078F3F59F1E091F607F091F70790818091FC07892B0C
:204300008083E091F807F091F90790818091FD07809589238083E091F607F091F7079081C1
:204320008091FC078095892380838C2F0E94B620E091F607F091F70790818091FC07892BAC
:204340008083CF9108958091EA0791E09093D4068093F6061092D5061092F70660E085E914
:2043600097E00E94EE196C2F85E997E00E94EE1981E0CF910C941621BF92CF92DF92EF92B8
:20438000FF920F931F93CF93DF9381E20E94722180E00E9472218FE70E94722182E20E9486
:2043A000722180E00E94722187E00E9472218091EC078F3F81F1E091F607F091F7079081F7
:2043C0008091FC07892B8083E091F807F091F90790818091FD07892B8083E091F607F09155
:2043E000F70790818091FC07809589238083C1E2D1E001E215E089910E94B6200C171D07D1
:20440000D1F7E091F607F091F70790818091FC07892B808330C00091B8008CE08093B8009B
:20442000C1E2D1E081E2C82E85E0D82EBB24B3948091EA07B092D4068093F6061092D50694
:204440001092F70660E485E997E00E94EE197E0110E1F70161917F0185E997E00E94EE1983
:204460001150B9F781E00E9416216096CC16DD06F9F60093B800DF91CF911F910F91FF904D
:20448000EF90DF90CF90BF9008951092AC061092AB061092D5061092F7061092D30681E044
:2044A0008093D2061092AD0661E082E10E94F41561E083E10E94F415E9EBF0E080818E7F6B
:2044C000808380818D7F808388E48093B80085E48093BC0084E999E19093AA068093A906DE
:2044E00085E999E19093A8068093A7060895BC019091FE079C3098F58091FF0728E830E033
:20450000281B310987FD3395220F331F220F331F621773078CF08091000848E552E0481B82
:20452000510987FD5395440F551F440F551F9B01461757070CF49A0122503109220F331F06
:204540004FB7F894892F90E0FC01EE0FFF1F8E0F9F1FFC01EF55F84F328321834FBF0895A2
:204560008091FE078C3008F051C061E089E00E9423168091FE07E82FF0E09F01220F331FBB
:20458000E20FF31FEF55F84F9081907C996090831092FF07109200086CE00E943F399CE030
:2045A000899FB001112440E050E09B01240F351FF901EE0FFF1F2E0F3F1FF901EF55F84F45
:2045C000908196FD16C04F5F5F4F4C30510569F781110FC01092800082E0809381001092B8
:2045E000850010928400B19A80916F00826080936F00E091FE07F0E0CF01880F991FE80F85
:20460000F91FEF55F84F8081806480838091FE0708952F923F924F925F926F927F928F92C5
:204620009F92AF92BF92CF92DF92EF92FF920F931F93CF93DF937C016B01C0E0D0E08824C6
:204640008394912C04E010E098EF692E77247A942DEFA22EBB24BA94842F8470582E842FF2
:204660008270482E842F8870382E4170242E219682E0880E911CA80CB91C5520C1F021E0B2
:2046800030E0A8014C0D5D1DB7016C0F7D1F80ED97E00E94A91821E030E0A6014C0F5D1FE9
:2046A000B8016E0D7F1D80ED97E00E94A9184420C1F021E030E0A601401B510BB7016C0F2C
:2046C0007D1F80ED97E00E94A91821E030E0A6014C1B5D0BB8016E0D7F1D80ED97E00E941A
:2046E000A9183320C1F021E030E0A6014C0F5D1FB701601B710B80ED97E00E94A91821E06F
:2047000030E0A8014C0D5D1DB7016C1B7D0B80ED97E00E94A91821100DC0C017D1071CF541
:20472000B7FCA5CF0150110982E0680E711CA60CB71C9DCF21E030E0A6014C1B5D0BB70152
:20474000601B710B80ED97E00E94A91821E030E0A601401B510BB7016C1B7D0B80ED97E001
:204760000E94A918DACFDF91CF911F910F91FF90EF90DF90CF90BF90AF909F908F907F9046
:204780006F905F904F903F902F9008952F923F924F925F926F927F928F929F92AF92BF92C7
:2047A000CF92DF92EF92FF920F931F93CF93DF93CDB7DEB76B970FB6F894DEBF0FBECDBF8B
:2047C0009B8F8A8F5B011A01D22E1F830E833701C982DC0158962D913C91599721153105B7
:2047E00009F0E6C018968D919C911997681779070CF0CDC11A968D919C911B97481759077C
:204800000CF0C5C18C2C912CFB0126E0C29EE00DF11D1124FB87EA871E161F060CF0B7C14F
:20482000A40183E0440F551F8A95E1F75D874C87CA01820D931D181619060CF0A8C1579652
:204840008C91811104C05FEA5D1508F4D394AA8DBB8DED91FC9111970284F385E02DCD01BC
:204860000995B5E0DB9EC0011124F5013596FF87EE87BB82AA8225019C012A193B09398B63
:20488000288BA101485F5F4F5B8B4A8BE889F989E40DF51DE95BFD4F5491588761013D8248
:2048A0002C82888580FF13C0AA8DBB8DED91FC91B981B13031F40484F585E02D2E813F81A3
:2048C00016C00684F785E02DEE80FF801AC0EE81FF81E615F705F1F0AA8DBB8DED91FC91D7
:2048E000B981B13051F40484F585E02D9301A601B2018A8D9B8D09950DC00684F785E02D9E
:204900007301840194014C815D816A817B818A8D9B8D0995E885E695E887FFEFCF1ADF0A83
:204920002C813D81280D391D3D832C834A895B89C416D50609F0B5CF5FEF451A550A8A8112
:204940009B81880D991D9B838A83AE85BF854A165B0609F09BCFEE81FF81E615F70509F447
:20496000F4C0EA8DFB8DA081B181F981F13079F4B5016B5F7F4F5096ED91FC91519783017E
:2049800028E030E0A1018A8D9B8D0995DEC06A857B85681979091E96ED91FC911F97730107
:2049A0000C851D859401A1018A8D9B8D0995CDC0F9013496E491DE1AF901329685919491F5
:2049C000B7E0DB9E800D911D1124F901259134913B8B2A8BFC01259134912901FC01329600
:2049E000C490319634913E87329614913196D4904981423058F0612E012E000C77088D2DF3
:204A00000D2C000C990B9987888704C019861886612C712CAA8DBB8DED91FC91119702849B
:204A2000F385E02DCD010995B9818B2E912C689CC001699C900D789C900D1124FC01EA0D94
:204A4000FB1DFD87EC871A82712C612CE12F110FFF0B95012E0F3F1F3B872A87AC0CB11C1E
:204A6000A5014E0F5F1F5F8B4E8BC1018D0D911DD7FC9A95998F888F9E85691608F065C0E8
:204A8000862D90E048855985480F591F489D9001499D300D589D300D1124D101A20FB31F24
:204AA000B98BA88BEC85FD85FD83EC83AA84BB84DA80FA85DF1A288D398D280F391F3D8B8C
:204AC0002C8B8D2D8A0D4E895F89A416B506C1F1877041F4C2010196EA89FB89E40DF51D68
:204AE00074902C0177FE21C0AA8DBB8DED91FC91B981B13061F40484F585E02D2E813F81B7
:204B00004C895D89B5018A8D9B8D09950EC00684F785E02DEE80FF808401940148895989AC
:204B20006C817D818A8D9B8D0995770CEFEFAE1ABE0A2C813D81280D391D3D832C83C1CFC7
:204B40003A813C0D3A83639497CFAA8DBB8DED91FC9111970688F789E02DCD016B960FB656
:204B6000F894DEBF0FBECDBFDF91CF911F910F91FF90EF90DF90CF90BF90AF909F908F90DB
:204B80007F906F905F904F903F902F9009946B960FB6F894DEBF0FBECDBFDF91CF911F9146
:204BA0000F91FF90EF90DF90CF90BF90AF909F908F907F906F905F904F903F902F90089596
:204BC0006115710579F0FB0101900020E9F73197AF01461B570BDC01ED91FC910280F381DA
:204BE000E02D099480E090E00895CF93DF93BC0188EF96E00E94E025EC0163E975E088EF74
:204C000096E00E94E0258C0F9D1FDF91CF91089567E876E00C94E0258F929F92AF92BF9285
:204C2000EF92FF920F931F93CF93DF93CDB7DEB7A1970FB6F894DEBF0FBECDBF7C01FA012A
:204C4000CB0119A2223008F42AE08E010F5D1F4F822E912CA12CB12CBF01A50194010E9458
:204C60004A36F901CA01015011096A3014F4605D01C0695CD8016C93232B242B252B61F782
:204C8000B801C7010E94E025A1960FB6F894DEBF0FBECDBFDF91CF911F910F91FF90EF9040
:204CA000BF90AF909F908F9008958F929F92AF92BF92CF92DF92EF92FF921F93CF93DF932D
:204CC0002AE042E050E060E070E088EF96E00E940C26EC016EE288EF96E00E94A70FC80FCE
:204CE000D91F13E060EB77E481E09FE3115009F120E030E040E251E40E9447354B015C01B7
:204D00000E94EF376B01E12CF12C2AE0B701A60188EF96E00E940C26C80FD91FC701B601BD
:204D20000E94E6349B01AC01C501B4010E947B36DDCF63E975E088EF96E00E94E0258C0F24
:204D40009D1FDF91CF911F91FF90EF90DF90CF90BF90AF909F908F9008951F920F920FB6AB
:204D60000F9211242F933F934F935F936F937F938F939F93AF93BF93CF93DF93EF93FF9311
:204D80008091010190910201A0910301B09104010197A105B14168F08091010190910201A2
:204DA000A0910301B09104010097A105B24108F453C01092FE058EE00E94CB15892B21F4DB
:204DC00081E08093FB0558C080E10E94CB15EC018FE00E94CB15AC0190910208990F9093E3
:204DE00002089091020821E0CD2B09F420E0922B9093020890910108990F9093010890917F
:204E0000010821E0452B09F420E0822F892B80930108809102088F70809302088091010849
:204E20008F708093010880910208893021F4809101088330C1F0809102088330E9F4809134
:204E400001088930C9F4809120068F5F8093200681E08093FD0510C080ED97E09093000622
:204E60008093FF05A6CF809121068F5F8093210681E08093FC05DFCFFF91EF91DF91CF9143
:204E8000BF91AF919F918F917F916F915F914F913F912F910F900FBE0F901F901895CF93F9
:204EA000DF93CDB7DEB7AA970FB6F894DEBF0FBECDBF789484B5826084BD84B5816084BD1C
:204EC00085B5826085BD85B5816085BD80916E00816080936E00109281008091810082609F
:204EE0008093810080918100816080938100809180008160809380008091B1008460809359
:204F0000B1008091B00081608093B00080917A00846080937A0080917A00826080937A0085
:204F200080917A00816080937A0080917A00806880937A001092C100E0910807F091090704
:204F400012E01083E0910407F09105071082E0910607F091070780E1808310921007E09196
:204F60000C07F0910D0786E08083E0910A07F0910B07808180618083E0910A07F0910B0711
:204F8000808188608083E0910A07F0910B07808180688083E0910A07F0910B0780818F7D02
:204FA00080830E94452288E48093B80060E08EE00E94231660E08FE00E94231660E080E1FA
:204FC0000E9423161093680087E080936C00789461E084E00E94231661E088E00E942316F5
:204FE00061E087E00E94231661E086E00E94231661E085E00E94231661E08AE00E942316A5
:2050000061E08BE00E94231661E08CE00E94231661E08DE00E94231660E084E00E94F415A9
:2050200060E088E00E94F41560E087E00E94F41560E086E00E94F41560E085E00E94F4152A
:2050400060E08AE00E94F41560E08BE00E94F41560E08CE00E94F41560E08DE00E94F415F6
:2050600061E083E00E94231660E083E00E94F4150E94B0228CEF98E00E94772260E971E027
:2050800080E090E00E948416E091FE07F0E0CF01880F991FE80FF91FEF55F84F80818F7BFA
:2050A00080831093EB078CE38093EA078091EC078F3F09F4BDC061E08091EE070E94231677
:2050C00061E08091F0070E9423168091F007082E000C990BFC01EF5EFD4FE491F0E0EE0FE6
:2050E000FF1FE95FFD4F259134913093F7072093F607FC01ED50FE4FE491E093FC0780918F
:20510000EE07082E000C990BFC01EF5EFD4FE491F0E0EE0FFF1FE95FFD4F259134913093EC
:20512000F9072093F807FC01ED50FE4FE491E093FD078091F10781113EC061E08091EC076C
:205140000E94231661E08091ED070E9423168091ED07082E000C990BFC01EF5EFD4FE4915D
:20516000F0E0EE0FFF1FE95FFD4F259134913093F5072093F407FC01ED50FE4FE491E09359
:20518000FB078091EC07082E000C990BFC01EF5EFD4FE491F0E0EE0FFF1FE95FFD4F2591E3
:2051A00034913093F3072093F207FC01ED50FE4FE491E093FA078091F107882309F43AC0A6
:2051C0001FB7F89480910106811127C0EBE1F2E08491EDEFF1E09491E82FF0E0EE0FFF1F55
:2051E000E751FE4FA591B491EC91E92321F461E08AE00E94F41561E08AE00E9423168CB5F4
:2052000080618CBD8CB580648CBD61E08DE00E94231661E08BE00E942316809101068F5FE0
:20522000809301061FBF80E58CBD81E08DBD02C00E9445228091EF0787FD1EC061E00E9406
:20524000231661E08091EF070E94F41561E070E080E090E00E94841660E08091EF070E949C
:20526000F4156AE070E080E090E00E94841661E08091EF070E94F4158EEA0E94722185ED6D
:205280000E94722180E80E94722188EA0E9472218FE30E94722183ED0E94722180E00E9447
:2052A000722180E40E9472218DE80E94722184E10E94722180E20E94722180E00E94722152
:2052C00081EA0E94722188EC0E9472218AED0E94722182E10E94722181E80E9472218FEC28
:2052E0000E94722189ED0E94722181EF0E9472218BED0E94722180E40E94722184EA0E94D3
:20530000722186EA0E9472218EE20E9472218FEA0E9472210E94BC2160EA7FE080E090E00A
:205320000E9484168090230590902405A090250588A699A6AAA688EF96E00E946F0F18165E
:2053400019060CF03FC088EF96E00E944D0F10920B0610920A068831B1F405E212E0F801B3
:205360006491611107C063E975E088EF96E00E94E0256DC288EF96E00E94A70F0F5F1F4F7A
:20538000892B69F7F0CF883211F08B3319F4F1E0F093B4059091B40591110EC02091B505F2
:2053A0003091B605F901E954FA4F80832F5F3F4F3093B6052093B505893209F048C2109287
:2053C000B40545C280910A0690910B06019690930B0680930A062091B5053091B605232B97
:2053E00009F435C28536910508F431C2882483948092F80540E050E060E87FEB87E40E9498
:20540000041F0E94EF37062F613009F4E8C320F0643008F0C0C10BC080910C018111CCC50A
:205420009924939490920C010E94B41CC5C56091210570912205072E000C880B990B0E9404
:20544000E834AB01BC0186E40E94041F0E94EF37CB010E94951F4091AC055091AD056091A8
:20546000AE057091AF058AE40E94041F688779878A879B874091AC055091AD056091AE05B6
:205480007091AF0589E40E94041F6C877D878E879F874091A8055091A9056091AA05709145
:2054A000AB0589E50E94041F6C837D838E839F834091A8055091A9056091AA057091AB0589
:2054C00088E50E94041F6B017C018090CA079090CB07A090CC07B090CD07A501940160919B
:2054E000A4057091A5058091A6059091A7050E9476372B013C01A50194016091A005709145
:20550000A1058091A2059091A3050E9476374B015C01209106063091070640910806509121
:205520000906C701B6010E94E134811110C011E02C813D814E815F816091020670910306B6
:2055400080910406909105060E94E134811110E0A30192016C857D858E859F850E947C3616
:205560006C877D878E879F87A5019401688579858A859B850E947C366C8B7D8B8E8B9F8B0E
:205580002C853D854E855F85C301B2010E947B36688779878A879B872C893D894E895F89BB
:2055A000C501B4010E947B362B013C012C853D854E855F85C701B6010E947B366B017C01CF
:2055C0002C893D894E895F896C817D818E819F810E947B366C837D838E839F830330F1F0EE
:2055E000A70196010E94FB364B015C0120E030E0A9010E94E13487FF0AC02BED3FE049ECC3
:2056000050E4C501B4010E947C364B015C01288539854A855B85C301B20121C02885398501
:205620004A855B85C301B2010E94FB364B015C0120E030E0A9010E94E13487FF0AC02BEDEF
:205640003FE049EC50E4C501B4010E947C364B015C01A70196016C817D818E819F810E944F
:20566000FB366B017C0120E030E0A9010E94E13487FF0AC02BED3FE049EC50E4C701B60130
:205680000E947C366B017C011111BEC2A7019601C501B4010E94C53887FFACC220E030E0CE
:2056A000A901C701B601033009F0DCC20E94E13487FDBAC2A5019401C701B6010E947B3633
:2056C0006C8F7D8F8E8F9F8F288539854A855B85CA01B9010E9447356B017C01A30192019B
:2056E000C301B2010E9447359B01AC01C701B6010E947C360E94E038688779878A879B871D
:205700009B01AC016C8D7D8D8E8D9F8D0E94473529E23CE54FE85DE30E9476370E945A37B3
:205720000E94E8371B019B0177FF02C02F5F3F4FC9019595879501969C01990F440B550B01
:2057400028A339A34AA35BA3412C512C32014394C101032C000CAA0BBB0B888F998FAA8FD3
:20576000BB8F288D398D4A8D5B8D24153505460557050CF0A6C21092060610920706109228
:205780000806109209061092020610920306109204061092050640E050E060E87FEB8DE429
:2057A0000E94041F0E94EF37653041F120F4633059F581E024C0623129F1643629F542E1D3
:2057C00050E067E570E081E00E941E1C87E896E00E94F52549E050E06DE770E081E00E941F
:2057E0001E1C88EF96E00E9408260E94552664E670E080E090E00E94841606C080E00E9427
:20580000B41C02C00E94751F40E050E060E87FEB84E50E94041F0E94EF37613039F018F006
:20582000633021F005C010920B0102C060930B0140E050E060E87FEB82E50E94041F0E94C0
:20584000EF37613011F40E94F41F0E94DC1F8091B0059091B105A091B205B091B305019625
:20586000A11DB11D8093B0059093B105A093B205B093B3058139904DA340B10530F084E062
:205880000E94CB15019709F444C38091FF05909100060197909300068093FF05892B19F415
:2058A000F1E0F093FE058091FD0581113DC38091FC05811139C38091FB05811135C38091A0
:2058C000FE05811131C38091FF059091000697FF04C0109200061092FF058091F90590912B
:2058E000FA05892B09F478C18091F805811174C100E1E02E06E0F02E00E010E060911E0117
:2059000070911F01600F711F41E050E080911D010E941E1C8091F70590E0D7018D939D9366
:205920007D010F5F1F4F0330110541F76091100670911106E0911206F0911306A0911406FF
:20594000B091150640E150E088E090E0C12CD12C76019C01285031098B01022E02C01695E9
:2059600007950A94E2F7812C912C54018394042E04C0880C991CAA1CBB1C0A94D2F700FFFC
:2059800005C0C828D928EA28FB2808C080949094A094B094C820D920EA20FB208F01022EDE
:2059A00002C0169507950A94E2F7812C912C54018394082E04C0880C991CAA1CBB1C0A9413
:2059C000D2F700FF05C0C828D928EA28FB2808C080949094A094B094C820D920EA20FB2096
:2059E0008D01022E02C0169507950A94E2F7812C912C5401839404C0880C991CAA1CBB1CE9
:205A00002A95D2F700FF05C0C828D928EA28FB280AC0950184010095109520953095C02299
:205A2000D122E222F32201964F5F5F4F8031910509F08FCFE2FE05C0B1E39B2E90920F0195
:205A400004C0A0E3AA2EA0920F0120E030E060E070E080E090E0AC01475F5F4F46015701D5
:205A600004C0B694A794979487944A95D2F780FE0FC0812C912C54018394082E04C0880C3E
:205A8000991CAA1CBB1C0A94D2F76829792911C0812C912C54018394082E04C0880C991C30
:205AA000AA1CBB1C0A94D2F7A401409550956423752346015701082E04C0B694A79497941B
:205AC00087940A94D2F780FE0FC0812C912C54018394082E04C0880C991CAA1CBB1C0A94A3
:205AE000D2F72829392911C0812C912C54018394082E04C0880C991CAA1CBB1C0A94D2F73C
:205B0000A401409550952423352301968930910509F0A1CF70930F0660930E0630930D0643
:205B200020930C0688A499A4AAA489829A82AB8280E090E00E94E6348E010F5F1F4F20E09E
:205B400043E00E941C318981809312018A81809313018B818093150160910C0670910D0685
:205B600080E090E00E94E63420E043E00E941C318981809318018A81809319018B818093FA
:205B80001B01EDE0F1E0A7EBB5E081918D938CE1A82E81E0B82EAE16BF06B9F721E330E01B
:205BA0003093B6052093B50548EC50E050930B0640930A0680911E0190911F010396909392
:205BC0001F0180931E018091F9059091FA0503979093FA058093F9050E941610ACCB809127
:205BE0000C01882309F4A3C110920C0181E00E94B41C9DC120E030E0A901C501B4010E94D5
:205C0000C53887FD4BCD05C0C12CD12C7601460157012BED3FE049EC50E4C701B6010E9465
:205C20007C366B017C013ACD2BED3FE049E450E4C501B4010E94C53818160CF03BCD2BEDC6
:205C40003FE049EC50E4C701B6010E947C366B017C012BED3FE049EC50E4C501B4010E9443
:205C60007B3620C00E94E134811124CD2BED3FE049E450E4C501B4010E94E13487FF1ACD22
:205C80002BED3FE049EC50E4C701B6010E947B366B017C012BED3FE049EC50E4C501B4018E
:205CA0000E947C364B015C0120E030E0A9010E94C53818160CF4FECCB7FAB094B7F8B094AE
:205CC000F9CC10929F0510929E054091CE075091CF07598B488BCA01A0E0B0E08C839D8356
:205CE000AE83BF8384159505A605B7050CF44AC028A139A14AA15BA142165306640675066D
:205D00000CF040C08091090190910A01883E33E09307C0F568EE73E0681B790B80E090E098
:205D20000E94E6346B017C016C817D818E819F810E94E6349B01AC01C701B6010E947637D1
:205D40006CA37DA38EA39FA3C301B2010E94E8349B01AC016CA17DA18EA19FA10E9447356B
:205D600020E030E040E85FE30E947B369B01AC01C701B6010E947B360E94EF3770939F05CC
:205D800060939E05C88CD98CEA8CFB8CC418D508E608F7088C819D81AE81BF81C816D906BA
:205DA000EA06FB060CF044C028A139A14AA15BA1C216D306E406F506DCF5809109019091C5
:205DC0000A01883E33E0930798F568EE73E0681B790B80E090E00E94E6346C837D838E837C
:205DE0009F83C701B6010E94E8342C813D814E815F810E9447356B017C0148895989BA01B5
:205E000080E090E00E94E6349B01AC01C701B6010E9476379B01AC016C817D818E819F817C
:205E20000E947B360E94EF3770939F0560939E0510920801033021F0B1016419750901C0AD
:205E4000B201072E000C880B990B0E94E8346B017C01688D798D8A8D9B8D0E94E8349B01DC
:205E6000AC01C701B6010E9476372C8D3D8D4E8D5F8D0E944735A50194010E947C366B0144
:205E80007C010E9471376C837D838E839F83C701B6010E94D2389B01AC01C090CA07D09024
:205EA000CB07E090CC07F090CD07688579858A859B850E9447352C893D894E895F890E9465
:205EC0007C36A70196010E944735688B798B8A8B9B8B2C813D814E815F81688579858A856D
:205EE0009B850E9447352C853D854E855F850E947C36A70196010E944735288939894A8943
:205F00005B890E94E91C5FEF451A550A650A750A28CC1092B0051092B1051092B20510925E
:205F2000B3050E94751FB1CC0E94CF03CCCC6091210570912205072E000C880B990B0E9491
:205F4000E834AB01BC0186E40E94041F0E94EF37CB010E94951F4091AC055091AD0560919D
:205F6000AE057091AF0589E50E94041F2091CA073091CB074091CC075091CD070E944735FA
:205F80006B017C014091A8055091A9056091AA057091AB0588E50E94041F2091CA07309145
:205FA000CB074091CC075091CD070E944735A70196010E94E91CEFCB6091210570912205B9
:205FC000072E000C880B990B0E94E834AB01BC0186E40E94041F0E94EF37CB010E94951F09
:205FE0004091AC055091AD056091AE057091AF0589E50E94041F2091CA073091CB0740911A
:20600000CC075091CD070E9447356B017C014091A8055091A9056091AA057091AB0588E526
:206020000E94041F2091CA073091CB074091CC075091CD070E944735A70196010E94E91C29
:206040008091A8059091A905A091AA05B091AB058093060690930706A0930806B093090600
:206060008091AC059091AD05A091AE05B091AF058093020690930306A0930406B0930506E0
:206080008ACB1092FB061092FA0688EE93E0A0E0B0E08093FC069093FD06A093FE06B093B8
:2060A000FF0626E435E03093F9062093F80625EC30E0309305072093040724EC30E03093B8
:2060C00007072093060720EC30E0309309072093080721EC30E030930B0720930A0722EC7D
:2060E00030E030930D0720930C0726EC30E030930F0720930E071092110710921207109219
:2061000013071092140710929807109297078093990790939A07A0939B07B0939C0788E588
:2061200095E090939607809395078091C5078C30A0F491E0980F9093C5078093FE0790E0BF
:20614000FC01EE0FFF1F8E0F9F1FFC01EF55F84F88EB9BE09283818303C08FEF8093FE07E4
:206160001092D3071092D20720E830E03093D5072093D40780E490E09093D7078093D6071E
:206180003093D9072093D8079093DB078093DA071092E5071092DD071092DC071092DF07B0
:2061A0001092DE0781E08093E4072FEF3FEF3093E3072093E2073093E1072093E00780930C
:2061C000E6071092E7071092E9071092E8078AE695E09093D1078093D0078FEF8093EC07D1
:2061E0008093F0078093EE078093ED0784E08093EF07809121059091220562E370E00E9463
:206200004B397093CF076093CE0780E090E0A0E6B1E48093CA079093CB07A093CC07B0934C
:20622000CD070E945F166093C6077093C7078093C8079093C9070895EF920F931F93CF9339
:20624000DF93E80147FD02C034E001C034E1042E000C550B57FF03C0519541955109E32E15
:20626000022F242FAE010E944031CE01DF91CF911F910F91EF900895662777270C949A3236
:20628000A9E0B0E0E6E4F1E30C9419366A01122FB02E2BE3201720F0FF24F394F00E02C00F
:2062A0002CE3F22E0F2D27E0AE014F5F5F4F0E94E833BC014981842F8970813031F0E1FCC2
:2062C00006C0E0FE06C090E205C09DE203C09BE201C090E05E2D507143FF3CC0911102C03F
:2062E00083E001C084E0811718F4212F281B01C020E051110BC0F601822F30E2882319F083
:2063000031938150FBCFC20ED11C20E0992329F0D6019C93F60131966F01C6010396E2FE18
:206320000AC03EE4D6013C9341E411964C93119712963C9306C03EE6F601308341E6418382
:206340003283FC01322F40E2332309F442C041933150FACF42FF44C0911102C083E001C0C8
:2063600084E0811718F4212F281B01C020E051110BC0F601822F30E2882319F03193815091
:20638000FBCFC20ED11C20E0992329F0D6019C93F60131966F01C6010396E2FE0BC039E445
:2063A000D6013C933EE411963C93119736E412963C9307C039E6F60130833EE6318336E6E2
:2063C0003283FC01322F40E2332319F041933150FBCFFC01E20FF11D10828EEF9FEFA6C00B
:2063E00021E030E0911102C020E030E0161617061CF4FB01319602C0E1E0F0E02E0F3F1F0E
:20640000BB2021F0EB2DF0E0319602C0E0E0F0E02E0F3F1FE12FF0E02E173F071CF4121B4C
:20642000212F01C020E08E2D887159F4F601822F30E2882319F031938150FBCFC20ED11CC0
:2064400020E0992329F0D6019C93F60131966F0151110BC0F601822F90E3882319F0919313
:206460008150FBCFC20ED11C20E00F2D060F9A81342F307144FF03C0913309F40150101616
:2064800024F4093018F008E001C001E0AB0177FF02C040E050E0FB01E41BF50BA1E0B0E0D9
:2064A000AC0FBD1FEA0FFB1F8EE2A82E4B01801A91080B2D10E01195019511094F3FBFEFB3
:2064C0005B0721F4D601AC9211966D01641775072CF08416950614F4818101C080E3415014
:2064E00051093196D60111967D014017510724F0D6018C936701E2CF6417750739F49633C0
:2065000020F4953319F4311101C081E3F6018083F701822F90E2882319F091938150FBCFA3
:20652000F701E20FF11D108280E090E02996ECE00C943536A0E0B0E0E0EAF2E30C941936CE
:20654000EC016B016115710519F0FB01918380837E01FFEFEF1AFF0A0881802F90E00E9411
:20656000C034892B11F0E701F3CF0D3239F47E0182E0E80EF11C098111E008C00B3229F4DB
:206580007E0192E0E90EF11C098110E0E701219743E050E06CEB70E0CE010E94C934892BD0
:2065A000C1F4239645E050E067EB70E0CE010E94C934892B09F42596C114D10419F0F601F2
:2065C000D183C0831111F6C060E070E080E89FE7FAC043E050E064EB70E0CE010E94C934B4
:2065E000892B59F4C114D10409F4E9C0F2E0EF0EF11CF601F182E082E2C020E030E0A90146
:20660000C0E0D0E0F70180EDA82EA00E89E08A1530F1912F9260B92E812F887012FF04C002
:20662000811124C0219622C081112197A5E0B0E00E940836DC01CB01880F991FAA1FBB1F71
:206640009C01AD012A0D311D411D511D283989E93807480789E1580748F0166006C09EEF73
:20666000A9120AC013FD40C01860B12E8FEFE81AF80A00811B2DC6CF802F8F7D8534A1F544
:2066800080818D3211F4106106C08B3221F0319661E070E004C08181329662E070E08053E5
:2066A0008A3018F0E61BF70B1FC060E070E060389CE079075CF4DB01AA0FBB1FAA0FBB1FC0
:2066C0006A0F7B1F660F771F680F711D3196DF0111978C9180538A3050F314FF03C071957F
:2066E00061957109C60FD71F11FF08C0C114D10429F0CF010197F60191838083CA01B901C9
:206700000E94E634212F2370233019F04B015C0106C04B015C01B7FAB094B7F8B09420E07E
:2067200030E0A901C501B4010E94E134882309F43EC0D7FF06C0D195C195D10903ED10E0B5
:2067400002C00BEE10E06801F8E1CF1AD10890E2E92EF12CCE15DF0574F0F8012591359144
:2067600045915491C501B4010E9447354B015C01CE19DF09EFCF04501109F594E7940C15FC
:206780001D0541F78A2D880F8B2D881F8F3F49F020E030E0A901C501B4010E94E13481116D
:2067A00006C082E290E09093040880930308C501B40109C060E070E080E89FEF04C060E024
:2067C00070E080EC9FE7CDB7DEB7ECE00C943536283008F027E03327DA01990F311D87FD81
:2067E000916000966105710539F432602E5F3D9330E32A95E1F708959F3F30F080387105A7
:20680000610509F03C5F3C5F3D93913008F08068911DDF93CF931F930F93FF92EF92192F42
:20682000987F9695E92F96959695E90FFF27E75BFE4F99273327EE24FF24A701E701059087
:206840000894079428F4360FE71EF81E491F511D660F771F881F991F0694A1F705900794E3
:2068600028F4E70EF81E491F561FC11D770F881F991F661F0694A1F70590079428F4F80E48
:20688000491F561FC71FD11D880F991F661F771F0694A1F70590079420F4490F561FC71FB4
:2068A000D81F990F661F771F881F0694A9F784911095177041F0D695C79557954795F794B1
:2068C000E7941A95C1F7EFEEF0E068941590159135916591959105907FE27395E118F10A0E
:2068E000430B560BC90BD009C0F7E10CF11E431F561FC91FD01D7EF4703311F48A95E6CFEF
:20690000E894015030F0080F0AF40027021708F4202F2395022F7A3328F079E37D932A9511
:20692000E9F710C07D932A9589F6069497956795379517951794E118F10A430B560BC90BFD
